:0400000080311D2806
:100008007E1480312000911E0A280B281B2891128B
:1000180023001D191028112815289D1C142815289F
:1000280019289D0190309D001B281908FB007E109F
:10003800090080311F28FB017E1020008031242810
:10004800F03021009B0023008C018D018E018F016F
:100058009001C03021008C0020308D000F308E00C0
:1000680003308F0022008C018D018E018F019001D9
:1000780024008C018D010C308E0003308F0021008C
:10008800971329001708F039013897008030950038
:10009800FF30940019303D00900080302C0096000D
:1000A800FC3025009F052C00950194011A303D0075
:1000B800920080302C009900F33025009F052C0019
:1000C8009801970115303D009A009C302500930057
:1000D800FC309E059201910116303D0098009C303D
:1000E80025009700F3309E059601950117303D00D5
:1000F800AE009C3025009B00CF309E059A019901E7
:1001080018303D00AC009C30260093003F3025009D
:100118009E052600920191010D303C00BD0024305F
:100128003D009C00243023009E0090309D00083044
:100138009F00A0309B0001309C00200091122100FC
:1001480091160B178B17A8302000A000FD30A100D6
:1001580020002108F7002008F6008031FE208031B9
:100168008131902180316830FA00E430890BBA2857
:10017800FA0BBA28003201302000A0070030A13D58
:100188002108803AFA0082307A02031DCD285830BF
:100198002002031CD028D128AC2858302000A20007
:1001A8000230A30020002308F7002208F60080315F
:1001B800FE2080318131932180316830FA00E430AB
:1001C800890BE428FA0BE4280032FF302000A2074C
:1001D800FF30A33D2308803AFA007D307A02031DE0
:1001E800F728A93022020318FA28FB28D628A728BE
:1001F80080311D287708803AF80082307802031D84
:10020800072959307602031C0A290B290F2958306F
:10021800F6000230F7007708803AF8007D3078025F
:10022800031D1829A830760203181B291C29202928
:100238005830F6000230F7007708803AF80080302E
:100248007802031D292901307602031C2C292D2947
:100258004229250091017708F9007608F800790D00
:10026800F90CF80C790DF90CF80C78089200153097
:100278003D009A009B0122008D117029F71F452926
:1002880046296A29FF30F000FF30F1007708F300B3
:100298007608F2008131712180317108F700700809
:1002A800F600250091017708F9007608F800790D25
:1002B800F90CF80C790DF90CF80C78089200153047
:1002C8003D009B009A0122000D1170293D009A0102
:1002D8009B0122000D118D110800F401F501701C1D
:1002E800762977297B297208F4077308F53D0130D0
:1002F800F235F30D890B7C290130F136F00C890BAE
:10030800812970087104031D8A298B2973297508AE
:10031800F1007408F000080022000F150800220000
:040328000F110800A9
:020000040001F9
:08000000FF3FFF3FFF3FFF3F00
:04000E00C40FFF1B01
:00000001FF
