:0400000080311D2806
:100008007E1480312000911E0A280B281B2891128B
:1000180023001D191028112815289D1C142815289F
:1000280019289D0190309D001B281908FC007E109E
:10003800090080311F28FC017E102000803124280F
:10004800F03021009B0023008C018D018E018F016F
:100058009001C03021008C0020308D000F308E00C0
:1000680003308F0022008C018D018E018F019001D9
:1000780024008C018D010C308E0003308F0021008C
:10008800971329001708F039013897008030950038
:10009800FF30940019303D00900080302C0096000D
:1000A800FC3025009F052C00950194011A303D0075
:1000B800920080302C009900F33025009F052C0019
:1000C8009801970115303D009A009C302500930057
:1000D800FC309E059201910116303D0098009C303D
:1000E80025009700F3309E059601950117303D00D5
:1000F800AE009C3025009B00CF309E059A019901E7
:1001080018303D00AC009C30260093003F3025009D
:100118009E052600920191010D303C00BD0024305F
:100128003D009C00243023009E0090309D00083044
:100138009F00A0309B0001309C00200091122100FC
:1001480091160B178B170030F600F7008531D02574
:1001580080310030F600F70085315D2580310030B0
:10016800F600F7008431EA2480310030F600F70009
:100178008431772480310030F600F700843104247C
:1001880080310030F600F7008331912380318631C9
:100198007D268031863168268031003A031DD528B6
:1001A800D628CE2886317A268031FA01FB0186319D
:1001B8006D268031003A0319E228E328E728013048
:1001C800FA070030FB3D863162268031003A031978
:1001D800EE28EF28F3280230FA070030FB3D86317D
:1001E80076268031003A0319FA28FB28FF280430C4
:1001F800FA070030FB3D863172268031003A031938
:10020800062907295B2B0830FA070030FB3D5B2BDA
:100218000030F600F7008531D02580310030F60037
:10022800F70085315D2580310030F600F700843114
:10023800EA2480310030F600F700843177248031D9
:100248000030F600F7008431042480315830F6007D
:100258000230F700833191238031D9280030F6002D
:10026800F7008531D02580310030F600F700853160
:100278005D2580310030F600F7008431EA248031B2
:100288000030F600F7008431772480315830F600CA
:100298000230F7008431042480310030F600F70082
:1002A800833191238031D9280030F600F700853159
:1002B800D02580310030F600F70085315D2580318A
:1002C8000030F600F7008431EA2480310030F6006F
:1002D800F700843177248031A830F600FD30F7002C
:1002E8008431042480310030F600F70083319123F3
:1002F8008031D9280030F600F7008531D0258031CB
:100308000030F600F70085315D2580310030F600B9
:10031800F7008431EA2480310030F600F700843198
:10032800772480310030F600F700843104248031CE
:10033800A830F600FD30F700833191238031D928A9
:100348000C30F600FE30F7008531D02580310030C2
:10035800F600F70085315D2580310030F600F700A2
:100368008431EA248031F430F6000130F70084311A
:10037800772480310030F600F7008431042480317E
:100388000030F600F700833191238031D9280030FE
:10039800F600F7008531D0258031F430F6000130C1
:1003A800F70085315D2580310C30F600FE30F7000E
:1003B8008431EA2480310030F600F7008431772454
:1003C80080310030F600F700843104248031003099
:1003D800F600F700833191238031D9280030F600E8
:1003E800F7008531D02580310C30F600FE30F7005B
:1003F80085315D258031F430F6000130F700843115
:10040800EA2480310030F600F70084317724803107
:100418000030F600F7008431042480310030F60003
:10042800F700833191238031D928F430F600013068
:10043800F7008531D02580310030F600F70085318E
:100448005D2580310030F600F7008431EA248031E0
:100458000C30F600FE30F70084317724803100300C
:10046800F600F7008431042480310030F600F700EC
:10047800833191238031D9280C30F600FE30F70003
:100488008531D0258031F430F6000130F700853110
:100498005D2580310C30F600FE30F7008431EA2407
:1004A8008031F430F6000130F70084317724803150
:1004B8000030F600F7008431042480310030F60063
:1004C800F700833191238031D928F430F6000130C8
:1004D800F7008531D0258031F430F6000130F7007F
:1004E80085315D2580310C30F600FE30F70084310F
:1004F800EA2480310C30F600FE30F700843177248E
:1005080080310030F600F700843104248031003057
:10051800F600F700833191238031D9280C30F6009A
:10052800FE30F7008531D02580310C30F600FE30E2
:10053800F70085315D258031F430F6000130F70091
:100548008431EA248031F430F6000130F700843138
:10055800772480310030F600F7008431042480319C
:100568000030F600F700833191238031D928F43028
:10057800F6000130F7008531D02580310C30F600C7
:10058800FE30F70085315D258031F430F60001300A
:10059800F7008431EA2480310C30F600FE30F70091
:1005A8008431772480310030F600F7008431042448
:1005B80080310030F600F700833191238031D9284B
:1005C8000C30F600FE30F7008531D02580310C3034
:1005D800F600FE30F70085315D2580310C30F600DD
:1005E800FE30F7008431EA2480310C30F600FE300A
:1005F800F7008431772480310030F600F700843129
:10060800042480310030F600F700833191238031D3
:10061800D928F430F6000130F7008531D025803133
:10062800F430F6000130F70085315D258031F43073
:10063800F6000130F7008431EA248031F430F60006
:100648000130F7008431772480310030F600F7005C
:100658008431042480310030F600F700833191237F
:100668008031D9280030F600F7008531D025803157
:100678000030F600F70085315D2580310030F60046
:10068800F7008431EA2480310030F600F700843125
:10069800772480310030F600F7008431042480315B
:1006A8000030F600F700833191238031D9287B0888
:1006B800003A0319602B362B7A08003A03190C29E3
:1006C800013A03193229033A03195829013A03193F
:1006D8007E29073A0319A429013A0319CB29033AB9
:1006E8000319F229013A0319192A0F3A0319402A62
:1006F800013A0319692A033A0319922A013A03199C
:10070800BB2A073A0319E42A013A03190D2B033AC5
:100718000319362B362B80311D287708803AF800CC
:1007280082307802031D9A2B59307602031C9D2BC8
:100738009E2BA22B5830F6000230F7007708803A3B
:10074800F8007D307802031DAB2BA8307602031821
:10075800AE2BAF2BB32B5830F6000230F7007708DA
:10076800803AF80080307802031DBC2B01307602F5
:10077800031CBF2BC02BD52B260091017708F9004D
:100788007608F800790DF90CF80C790DF90CF80CCD
:100798007808920018303D00AC00AD0122008F129D
:1007A800032CF71FD82BD92BFD2BFF30F000FF307F
:1007B800F1007708F3007608F2008631432683318A
:1007C8007108F7007008F600260091017708F90013
:1007D8007608F800790DF90CF80C790DF90CF80C7D
:1007E8007808920018303D00AD00AC0122000F12CD
:1007F800032C3D00AC01AD0122000F128F1208003E
:100808007708803AF80082307802031D0D2C5930A1
:100818007602031C102C112C152C5830F6000230CF
:10082800F7007708803AF8007D307802031D1E2C07
:10083800A83076020318212C222C262C5830F600DA
:100848000230F7007708803AF80080307802031DFC
:100858002F2C01307602031C322C332C482C250017
:1008680099017708F9007608F800790DF90CF80C69
:10087800790DF90CF80C78089A0017303D00AE0095
:10088800AF0122008F13762CF71F4B2C4C2C702CA9
:10089800FF30F000FF30F1007708F3007608F2002F
:1008A8008631432684317108F7007008F600250068
:1008B80099017708F9007608F800790DF90CF80C19
:1008C800790DF90CF80C78089A0017303D00AF0044
:1008D800AE0122000F13762C3D00AE01AF012200BD
:1008E8000F138F1308007708803AF80082307802D7
:1008F800031D802C59307602031C832C842C882CF1
:100908005830F6000230F7007708803AF8007D305A
:100918007802031D912CA83076020318942C952C8C
:10092800992C5830F6000230F7007708803AF80022
:1009380080307802031DA22C01307602031CA52CFE
:10094800A62CBB2C250095017708F9007608F8003D
:10095800790DF90CF80C790DF90CF80C780896005B
:1009680016303D009800990122008D10E92CF71FE0
:10097800BE2CBF2CE32CFF30F000FF30F1007708CD
:10098800F3007608F2008631432684317108F700B7
:100998007008F600250095017708F9007608F80038
:1009A800790DF90CF80C790DF90CF80C780896000B
:1009B80016303D009900980122000D10E92C3D00E9
:1009C8009801990122000D108D1008007708803ACF
:1009D800F80082307802031DF32C59307602031C8C
:1009E800F62CF72CFB2C5830F6000230F70077086D
:1009F800803AF8007D307802031D042DA830760275
:100A08000318072D082D0C2D5830F6000230F7007A
:100A18007708803AF80080307802031D152D0130E0
:100A28007602031C182D192D2E2D2500910177080B
:100A3800F9007608F800790DF90CF80C790DF90C25
:100A4800F80C7808920015303D009A009B012200AE
:100A58008D115C2DF71F312D322D562DFF30F000F2
:100A6800FF30F1007708F3007608F200863143265C
:100A780084317108F7007008F600250091017708A5
:100A8800F9007608F800790DF90CF80C790DF90CD5
:100A9800F80C7808920015303D009B009A0122005E
:100AA8000D115C2D3D009A019B0122000D118D1145
:100AB80008007708803AF80082307802031D662D16
:100AC80059307602031C692D6A2D6E2D5830F600B8
:100AD8000230F7007708803AF8007D307802031D6D
:100AE800772DA830760203187A2D7B2D7F2D58306C
:100AF800F6000230F7007708803AF8008030780274
:100B0800031D882D01307602031C8B2D8C2DA12D01
:100B18002C0097017708F9007608F800790DF90C90
:100B2800F80C790DF90CF80C780898001A303D008B
:100B38009200930122008C11CF2DF71FA42DA52D13
:100B4800C92DFF30F000FF30F1007708F300760878
:100B5800F2008631432685317108F7007008F600E7
:100B68002C0097017708F9007608F800790DF90C40
:100B7800F80C790DF90CF80C780898001A303D003B
:100B88009300920122000C11CF2D3D009201930198
:100B980022000C118C1108007708803AF800823086
:100BA8007802031DD92D59307602031CDC2DDD2D6A
:100BB800E12D5830F6000230F7007708803AF80047
:100BC8007D307802031DEA2DA83076020318ED2D3A
:100BD800EE2DF22D5830F6000230F7007708803AF3
:100BE800F80080307802031DFB2D01307602031CCB
:100BF800FE2DFF2D142E2C0094017708F90076089D
:100C0800F800790DF90CF80C790DF90CF80C780846
:100C1800950019303D009000910122008C10422E61
:100C2800F71F172E182E3C2EFF30F000FF30F10072
:100C38007708F3007608F20086314326853171087B
:100C4800F7007008F6002C0094017708F900760880
:100C5800F800790DF90CF80C790DF90CF80C7808F6
:100C6800950019303D009100900122000C10422E91
:100C78003D009001910122000C108C100800F40135
:100C8800F501701C482E492E4D2E7208F407730882
:100C9800F53D0130F235F30D890B4E2E0130F1365A
:100CA800F00C890B532E70087104031D5C2E5D2E09
:100CB800452E7508F1007408F000080020000C0E9D
:100CC800890C890C0139080020000E0C890C0139A7
:100CD800080020000C0D0C0D0139080020000E0C36
:100CE8000139080020000E080139080022000F15FC
:080CF800080022000F110800A2
:020000040001F9
:08000000FF3FFF3FFF3FFF3F00
:04000E00C40FFF1B01
:00000001FF
