:0400000080311D2806
:100008007E1480312000911E0A280B281B2891128B
:1000180023001D191028112815289D1C142815289F
:1000280019289D0190309D001B281908FC007E109E
:10003800090080311F28FC017E102000803124280F
:10004800F03021009B0023008C018D018E018F016F
:100058009001C03021008C0020308D000F308E00C0
:1000680003308F0022008C018D018E018F019001D9
:1000780024008C018D010C308E0003308F0021008C
:10008800971329001708F039013897008030950038
:10009800FF30940019303D00900080302C0096000D
:1000A800FC3025009F052C00950194011A303D0075
:1000B800920080302C009900F33025009F052C0019
:1000C8009801970115303D009A009C302500930057
:1000D800FC309E059201910116303D0098009C303D
:1000E80025009700F3309E059601950117303D00D5
:1000F800AE009C3025009B00CF309E059A019901E7
:1001080018303D00AC009C30260093003F3025009D
:100118009E052600920191010D303C00BD0024305F
:100128003D009C00243023009E0090309D00083044
:100138009F00A0309B0001309C00200091122100FC
:1001480091160B178B170030F600F7008531CA257A
:1001580080310030F600F7008531572580310030B6
:10016800F600F7008431E42480310030F600F7000F
:100178008431712480310030F600F7008331FE238A
:1001880080310030F600F70083318B2380318631CF
:1001980062268031003A031DD228D328CB28FA01E1
:1001A800FB01863167268031003A0319DC28DD28F7
:1001B800E1280130FA070030FB3D86315C268031AA
:1001C800003A0319E828E928ED280230FA07003038
:1001D800FB3D863170268031003A0319F428F52852
:1001E800F9280430FA070030FB3D86316C2680314F
:1001F800003A031900290129552B0830FA07003065
:10020800FB3D552B0030F600F7008531CA258031BB
:100218000030F600F7008531572580310030F600B0
:10022800F7008431E42480310030F600F70084318F
:10023800712480310030F600F7008331FE238031CD
:100248005830F6000230F70083318B238031D328F1
:100258000030F600F7008531CA2580310030F600FD
:10026800F7008531572580310030F600F7008431DA
:10027800E42480310030F600F700843171248031A5
:100288005830F6000230F7008331FE238031003009
:10029800F600F70083318B238031D3280030F60035
:1002A800F7008531CA2580310030F600F700853126
:1002B800572580310030F600F7008431E42480317E
:1002C8000030F600F700843171248031A830F60040
:1002D800FD30F7008331FE2380310030F600F7004F
:1002E80083318B238031D3280030F600F700853125
:1002F800CA2580310030F600F70085315725803156
:100308000030F600F7008431E42480310030F60034
:10031800F7008431712480310030F600F700833112
:10032800FE238031A830F600FD30F70083318B239F
:100338008031D328A830F600FD30F7008531CA2572
:1003480080310030F600F7008531572580310030C4
:10035800F600F7008431E42480315830F60002308A
:10036800F7008431712480310030F600F7008331C2
:10037800FE2380310030F600F70083318B23803173
:10038800D3280030F600F7008531CA25803158306F
:10039800F6000230F700853157258031A830F60085
:1003A800FD30F7008431E42480310030F600F70096
:1003B8008431712480310030F600F7008331FE2348
:1003C80080310030F600F70083318B238031D32849
:1003D8000030F600F7008531CA258031A830F600D4
:1003E800FD30F7008531572580315830F60002304E
:1003F800F7008431E42480310030F600F7008431BE
:10040800712480310030F600F7008331FE238031FB
:100418000030F600F70083318B238031D328583021
:10042800F6000230F7008531CA2580310030F60029
:10043800F7008531572580310030F600F700843108
:10044800E4248031A830F600FD30F70084317124AF
:1004580080310030F600F7008331FE238031003010
:10046800F600F70083318B238031D328A830F600BB
:10047800FD30F7008531CA2580315830F60002304A
:10048800F700853157258031A830F600FD30F70098
:100498008431E42480315830F6000230F70084318A
:1004A800712480310030F600F7008331FE2380315B
:1004B8000030F600F70083318B238031D328583081
:1004C800F6000230F7008531CA2580315830F60031
:1004D8000230F700853157258031A830F600FD300D
:1004E800F7008431E4248031A830F600FD30F700AD
:1004F8008431712480310030F600F7008331FE2307
:1005080080310030F600F70083318B238031D32807
:10051800A830F600FD30F7008531CA258031A830B3
:10052800F600FD30F7008531572580315830F60048
:100538000230F7008431E42480315830F60002306C
:10054800F7008431712480310030F600F7008331E0
:10055800FE2380310030F600F70083318B23803191
:10056800D3285830F6000230F7008531CA2580318B
:10057800A830F600FD30F700853157258031583016
:10058800F6000230F7008431E4248031A830F60008
:10059800FD30F7008431712480310030F600F70017
:1005A8008331FE2380310030F600F70083318B233E
:1005B8008031D328A830F600FD30F7008531CA25F0
:1005C8008031A830F600FD30F7008531572580319D
:1005D800A830F600FD30F7008431E4248031A830DB
:1005E800F600FD30F7008431712480310030F600C8
:1005F800F7008331FE2380310030F600F7008331A5
:100608008B238031D3285830F6000230F70085312B
:10061800CA2580315830F6000230F7008531572559
:1006280080315830F6000230F7008431E4248031FC
:100638005830F6000230F7008431712480310030E0
:10064800F600F7008331FE2380310030F600F70012
:1006580083318B238031D3280030F600F7008531B1
:10066800CA2580310030F600F700853157258031E2
:100678000030F600F7008431E42480310030F600C1
:10068800F7008431712480310030F600F70083319F
:10069800FE2380310030F600F70083318B23803150
:1006A800D3287B08003A03195A2B302B7A08003AD2
:1006B80003190629013A03192C29033A0319522967
:1006C800013A03197829073A03199E29013A0319AF
:1006D800C529033A0319EC29013A0319132A0F3AD9
:1006E80003193A2A013A0319632A033A03198C2A8F
:1006F800013A0319B52A073A0319DE2A013A031900
:10070800072B033A0319302B302B80311D2877082B
:10071800803AF80082307802031D942B5930760213
:10072800031C972B982B9C2B5830F6000230F700AF
:100738007708803AF8007D307802031DA52BA83091
:1007480076020318A82BA92BAD2B5830F6000230DF
:10075800F7007708803AF80080307802031DB62B3E
:1007680001307602031CB92BBA2BCF2B260091013E
:100778007708F9007608F800790DF90CF80C790D6E
:10078800F90CF80C7808920018303D00AC00AD0167
:1007980022008F12FD2BF71FD22BD32BF72BFF3004
:1007A800F000FF30F1007708F3007608F200863198
:1007B8003D2683317108F7007008F6002600910184
:1007C8007708F9007608F800790DF90CF80C790D1E
:1007D800F90CF80C7808920018303D00AD00AC0117
:1007E80022000F12FD2B3D00AC01AD0122000F12BB
:1007F8008F1208007708803AF80082307802031DCB
:10080800072C59307602031C0A2C0B2C0F2C58305D
:10081800F6000230F7007708803AF8007D30780259
:10082800031D182CA830760203181B2C1C2C202C16
:100838005830F6000230F7007708803AF800803028
:100848007802031D292C01307602031C2C2C2D2C38
:10085800422C250099017708F9007608F800790DEF
:10086800F90CF80C790DF90CF80C78089A00173087
:100878003D00AE00AF0122008F13702CF71F452CEE
:10088800462C6A2CFF30F000FF30F1007708F300A7
:100898007608F20086313D2683317108F70070082A
:1008A800F600250099017708F9007608F800790D17
:1008B800F90CF80C790DF90CF80C78089A00173037
:1008C8003D00AF00AE0122000F13702C3D00AE01B9
:1008D800AF0122000F138F1308007708803AF80041
:1008E80082307802031D7A2C59307602031C7D2C45
:1008F8007E2C822C5830F6000230F7007708803AB8
:10090800F8007D307802031D8B2CA830760203187E
:100918008E2C8F2C932C5830F6000230F700770875
:10092800803AF80080307802031D9C2C0130760252
:10093800031C9F2CA02CB52C250095017708F900E5
:100948007608F800790DF90CF80C790DF90CF80C0B
:100958007808960016303D009800990122008D1005
:10096800E32CF71FB82CB92CDD2CFF30F000FF303A
:10097800F1007708F3007608F20086313D268431CD
:100988007108F7007008F600250095017708F9004E
:100998007608F800790DF90CF80C790DF90CF80CBB
:1009A8007808960016303D009900980122000D1035
:1009B800E32C3D009801990122000D108D100800CC
:1009C8007708803AF80082307802031DED2C593000
:1009D8007602031CF02CF12CF52C5830F60002306E
:1009E800F7007708803AF8007D307802031DFE2C66
:1009F800A83076020318012D022D062D5830F60076
:100A08000230F7007708803AF80080307802031D3A
:100A18000F2D01307602031C122D132D282D2500D1
:100A280091017708F9007608F800790DF90CF80CAF
:100A3800790DF90CF80C7808920015303D009A00F1
:100A48009B0122008D11562DF71F2B2D2C2D502D7B
:100A5800FF30F000FF30F1007708F3007608F2006D
:100A680086313D2684317108F7007008F6002500AC
:100A780091017708F9007608F800790DF90CF80C5F
:100A8800790DF90CF80C7808920015303D009B00A0
:100A98009A0122000D11562D3D009A019B0122005A
:100AA8000D118D1108007708803AF800823078021D
:100AB800031D602D59307602031C632D642D682DAB
:100AC8005830F6000230F7007708803AF8007D3099
:100AD8007802031D712DA83076020318742D752D28
:100AE800792D5830F6000230F7007708803AF80080
:100AF80080307802031D822D01307602031C852D7B
:100B0800862D9B2D2C0097017708F9007608F800B0
:100B1800790DF90CF80C790DF90CF80C7808980097
:100B28001A303D009200930122008C11C92DF71F45
:100B38009E2D9F2DC32DFF30F000FF30F100770868
:100B4800F3007608F20086313D2685317108F700FA
:100B58007008F6002C0097017708F9007608F8006D
:100B6800790DF90CF80C790DF90CF80C7808980047
:100B78001A303D009300920122000C11C92D3D004E
:100B88009201930122000C118C1108007708803A19
:100B9800F80082307802031DD32D59307602031CE9
:100BA800D62DD72DDB2D5830F6000230F700770808
:100BB800803AF8007D307802031DE42DA8307602D3
:100BC8000318E72DE82DEC2D5830F6000230F70019
:100BD8007708803AF80080307802031DF52D01303F
:100BE8007602031CF82DF92D0E2E2C00940177089F
:100BF800F9007608F800790DF90CF80C790DF90C64
:100C0800F80C7808950019303D00900091012200F9
:100C18008C103C2EF71F112E122E362EFF30F000AE
:100C2800FF30F1007708F3007608F20086313D26A0
:100C380085317108F7007008F6002C0094017708D8
:100C4800F9007608F800790DF90CF80C790DF90C13
:100C5800F80C7808950019303D00910090012200A9
:100C68000C103C2E3D009001910122000C108C10BC
:100C78000800F401F501701C422E432E472E72081D
:100C8800F4077308F53D0130F235F30D890B482E52
:100C98000130F136F00C890B4D2E70087104031DDC
:100CA800562E572E3F2E7508F1007408F0000800E4
:100CB80020000C0E890C890C0139080020000E0C4C
:100CC800890C0139080020000C0D0C0D01390800B1
:100CD80020000E0C0139080020000E080139080018
:020000040001F9
:08000000FF3FFF3FFF3FFF3F00
:04000E00C40FFF1B01
:00000001FF
